:107C160011E0A0E0B1E0E6E9FEE702C005900D92B2
:107C2600A032B107D9F711E0A0E2B1E001C01D9280
:107C3600A432B107E1F7112484E893E0EAD088235F
:107C460009F4C4D085E08093810082E08093C0006F
:107C560088E18093C10086E08093C20087E6809326
:107C6600C4008EE09DD03D9A86E028E13EEF91E08B
:107C7600309385002093840096BBB09BFECF359A47
:107C8600A8958150A9F788E893E0CBD0909321017D
:107C9600809320011092230110922201E3E09E2E90
:107CA600CC24DD24AA24A39475E0B72E61E1E62E48
:107CB6004CC0C901801B910B8038910518F050E823
:107CC600F52E02C0F22EF01AC0E0D1E0899154D010
:107CD60081E0CE31D807D1F78F2D90E07DD08CE2B0
:107CE6004BD0C80179D08DE047D08AE045D082E0FC
:107CF60065D0C0E0D1E048D08993FC16E1F786E074
:107D06005DD0F60197BEE89507B600FCFDCFA0E072
:107D1600B1E0FD01E050F1402C9130E011968C91DC
:107D2600119790E0982F8827822B932B12960C019F
:107D3600A7BEE8951124FA1661F7F601B7BEE895D5
:107D460007B600FCFDCFE7BEE89500912201109131
:107D5600230120912001309121010217130709F018
:107D6600A8CFCFEFD3E02197CE016FEF5FD020975A
:107D7600D1F788E015D0FFCF982F8091C00085FFFE
:107D8600FCCF9093C60008958091C00087FFFCCF7A
:107D96008091C00084FD01C0A8958091C600089519
:107DA600E0E6F0E098E1908380830895EDDF80328D
:107DB60019F088E0F5DFFFCF84E1DECF1F93182F9F
:107DC600E3DF1150E9F7F2DF1F910895282E80E0D6
:107DD600E7DFE0E0FF270994CF93DF939C01C0E043
:107DE600D1E00BC0C9016AE070E03ED0805D8993A6
:107DF600C9016AE070E038D09B012115310591F781
:107E06008A91BADF81E0C030D807D1F7DF91CF91F0
:107E16000895F999FECF92BD81BDF89A992780B54C
:107E26000895A8E1B0E042E050E010C0262FF9998D
:107E3600FECF1FBA92BD81BD20BD0FB6F894FA9A47
:107E4600F99A0FBE01960895DC01CB01FC01F99960
:107E5600FECF06C0F2BDE1BDF89A319600B40D9290
:107E660041505040B8F70895AA1BBB1B51E107C00B
:107E7600AA1FBB1FA617B70710F0A61BB70B881FB4
:107E8600991F5A95A9F780959095BC01CD01089543
:107E960041542B4653524541443D433A5C55736524
:107EA600725C4654505C6D2E62696E2C312C00005B
:027FFE00020679
:0400000300007C1667
:00000001FF
