:10780000CDB7DEB72D97DEBFCDBF579A5F9A89E21D
:107810003DD28DE025D28AE023D2F894112414B70A
:1078200014BE84E893E0F5D2813041F0A89580E061
:107830002DD2212EA895E0E0FF27099484E993E05A
:10784000E8D2682F8A3028F083E0DBD28CE01ED2A9
:10785000FFCF6F5F84E993E0E9D285E080938100F8
:1078600082E08093C00088E18093C10086E080932D
:10787000C20083E38093C40089E208D23D9A8DE080
:10788000EFD18AE0EDD18DE0EBD18AE0E9D18DE056
:10789000E7D18AE0E5D184E028E13EEF91E0309342
:1078A00085002093840096BBB09BFECF359AA895A7
:1078B0008150A9F788E893E0B4D2688779878A87EE
:1078C0009B878DE0CDD18AE0CBD180E993E0A1D236
:1078D0001D82813011F421E02D8388EE93E09A839C
:1078E00089831F821E8244245524320145C1A895F4
:1078F000E884F9840A851B85E418F5080609170948
:1079000091EDE91692E0F90690E0090790E0190779
:1079100030F040EDE42E42E0F42E012D112DFC82DA
:10792000EB8281E49DD184E59BD18BE299D186E401
:1079300097D183E595D182E593D185E491D181E416
:107940008FD184E48DD18DE38BD183E489D18AE317
:1079500087D18CE585D185E583D183E781D185E623
:107960007FD182E77DD18CE57BD186E479D184E536
:1079700077D180E575D18CE573D18DE671D18EE23A
:107980006FD188E66DD185E66BD188E769D18CE24D
:1079900067D181E365D18CE263D1AB81BC81BD014C
:1079A00080E090E0F7D18CE25BD1C301B201F2D16B
:1079B0008DE056D18AE054D15BD15AD18701E12CB8
:1079C00031E0F32E55D1F70181937F010150104032
:1079D000C9F74ED14DD14CD14BD14AD149D1C12C4F
:1079E00021E0D22EA3C0C401AA2797FDA095BA2FEB
:1079F000480E591E6A1E7B1EBFC0F7013196D70183
:107A00001196BC91BD87DF011196A180FD013196D1
:107A100011962C912C87DF01119681808D010F5FCB
:107A20001F4F78010894E11CF11C11968C9112D122
:107A3000982ED80111968C910DD1929490EF9922A5
:107A4000980EBD81BB2321F4E8EEF3E0FA83E983CD
:107A500017010894211C311C882DFCD0E82E8A2D9A
:107A6000F9D0082F8D85F6D0182F8C85F3D0E00E35
:107A70001295107FE10E8295807FE80EE90CEB0CE9
:107A80000B2D15C0D60117968C91E4D0182FF60156
:107A90008085E0D0E981FA811295107F180F10835C
:107AA000E981FA818191E80EFA83E983015022E0AD
:107AB00030E0C20ED31E002329F70B2D10E0000F7B
:107AC000111F020D131DE19468010894C11CD11C03
:107AD000D8018C91BFD0F82EF8018181BBD0F294EF
:107AE00010EFF122F80EFE1429F082E08AD18CE02A
:107AF000CDD0FFCFFD81FF23A9F089819A81885ED7
:107B000093408038910534F421E0921659F4181608
:107B1000190644F48E819F81BE016F5F7F4FF9D0BB
:107B20009F838E8383E090E0C80ED91E812CBFEF27
:107B30009B2E8C0C9D1C86010F5F1F4F78010894B3
:107B4000E11CF11CD60111968C9184D0B82EF8015D
:107B5000818180D0B294A0EFBA22B80E2B813C81F3
:107B6000281939098B2D90E0880F991F0B9628173B
:107B7000390708F042CF37CF88859985AA85BB851C
:107B8000481659066A067B0608F4B1CE9D819130ED
:107B900009F058C081E464D084E562D08BE260D003
:107BA00086E45ED083E55CD084E45AD085E458D086
:107BB0008CE456D08DE354D083E452D08AE350D085
:107BC0008CE54ED085E54CD083E74AD085E648D099
:107BD00082E746D08CE544D086E442D084E540D0AC
:107BE00080E53ED08CE53CD08DE63AD08EE238D0B0
:107BF00088E636D085E634D088E732D08DE030D0C4
:107C00008AE02ED08AE028E13EEF91E030938500B3
:107C10002093840096BBB09BFECF359AA8958150E7
:107C2000A9F70FEF13E001501040C8016FEFFED02D
:107C3000A3E004381A07B9F781E0E3D0A89588E0FB
:107C400025D007C080E993E061E0F0D0B1E0BD83CA
:107C500044CEFFCF813410F48053089587530895A4
:107C6000982F8091C00085FFFCCF9093C6000895A7
:107C7000359A8091C00087FFFCCF8091C00084FDC1
:107C800001C0A8958091C600359A0895E0E6F0E01D
:107C900098E1908380830895282EA895E0E0FF273F
:107CA00009941F93CF93DF93DB01BA01E901853477
:107CB00009F4FFCF83E0FA0187BFE89507B600FC1F
:107CC000FDCF40E050E011E08C9190E011962C91B6
:107CD000119730E0322F2227282B392B1296FA01E8
:107CE000E60FF71F090117BFE89511244E5F5F4F9C
:107CF000C417D50749F785E0FB0187BFE89507B6AC
:107D000000FCFDCF81E187BFE895DF91CF911F9106
:107D100008950F931F93CF93DF93EC018B01DB0149
:107D20002D913C91285E334020383105E4F086E403
:107D300068EE73E0AE0120E830E0B3DFE8E6F4E09F
:107D400002C081918C93D8018D919C91DF01A05844
:107D5000B040E817F907A8F3F801B183A0839E01AA
:107D600020583F4F11C086E468EE73E0AE0199DF02
:107D7000C85ED340D8012D913C9111972C0F3D1F27
:107D800088EE93E08D939C93C901DF91CF911F9171
:107D90000F910895EF92FF920F931F93CF93DF936C
:107DA0007B018C01611571058105910519F480E352
:107DB00057DF20C0C0E0D1E0C801B7012AE030E0C1
:107DC00040E050E051D0605D6993C801B7012AE0FE
:107DD00030E040E050E048D079018A0121153105BA
:107DE0004105510549F702C08A913ADF81E0C1306F
:107DF000D807D0F7DF91CF911F910F91FF90EF90AF
:107E00000895682F8CE893E011D084E893E060E057
:107E10000DC0F999FECF92BD81BDF89A992780B522
:107E20000895A6E1B0E044E050E010C0262FF99993
:107E3000FECF1FBA92BD81BD20BD0FB6F894FA9A4D
:107E4000F99A0FBE01960895DC01CB01FC01F99966
:107E5000FECF06C0F2BDE1BDF89A319600B40D9296
:107E600041505040B8F70895A1E21A2EAA1BBB1B3F
:107E7000FD010DC0AA1FBB1FEE1FFF1FA217B307F6
:107E8000E407F50720F0A21BB30BE40BF50B661F0C
:107E9000771F881F991F1A9469F7609570958095D0
:0C7EA00090959B01AC01BD01CF0108953D
:027FFE00020679
:040000030000780081
:00000001FF
