:1078000012E0A0E0B1E001C01D92AD37B107E1F791
:1078100089E232D28DE01AD28AE018D2112474B6ED
:1078200014BE84E893E0C8D2813029F0272CA895B3
:10783000E0E0FF2709948DE009D28AE007D28DE0CD
:1078400005D28AE003D285E08093810082E08093B4
:10785000C00088E18093C10086E08093C20083E38A
:107860008093C40089E208D23D9A8DE0EFD18AE08E
:10787000EDD188E893E0A8D24B015C0186E028E1D5
:107880003EEF91E0309385002093840096BBB09B3F
:10789000FECF359AA8958150A9F710927C021092DC
:1078A0007B021092020110920101109200011092CD
:1078B000E6011092E7011092E8011092E901F1EE61
:1078C0004F2E512C56C1A895D501C4018C199D0984
:1078D000AE09BF09823E9105A105B10520F081EEF8
:1078E00090E0A0E0B0E0182F81E4B0D184E5AED103
:1078F0008BE2ACD186E4AAD183E5A8D182E5A6D1FA
:1079000085E4A4D181E4A2D184E4A0D18DE39ED109
:1079100083E49CD18AE39AD18CE598D185E596D110
:1079200083E794D185E692D182E790D18CE58ED120
:1079300086E48CD184E58AD180E588D18CE586D136
:107940008DE684D18EE282D188E680D185E67ED133
:1079500088E77CD18CE27AD181E378D18CE276D150
:10796000612F70E080E090E0C4D18CE26FD1C7015C
:10797000B601BFD18DE06AD18AE068D16FD16ED1F6
:107980001092E5011092E401012F10E00AC066D1C7
:10799000FE01ED5FFE4F80832196D093E501C093F9
:1079A000E401C091E401D091E501C017D10778F35B
:1079B00055D154D153D152D151D150D11092EA0165
:1079C0001092E5011092E4016091E4017091E501EB
:1079D0004091EA014F5FE42FF0E0ED5FFE4FE08160
:1079E000E13418F49E2F905302C09E2F97534F5F9F
:1079F000E42FF0E04150ED5FFE4F8081813410F4C0
:107A0000805301C087539201261B370B9295907FBC
:107A1000890F90E0880F991F0B962817390708F4F3
:107A20008EC04093EA016F5F7F4F7093E5016093D2
:107A3000E401E2D0F82EE0D0082FDED0182FDCD001
:107A4000E82E0F0D010F080F1DC080910001C82FF7
:107A5000D0E0D2D0C551DE4F888390910001E92F4C
:107A6000F0E0E551FE4F8081080F9F5F9093000189
:107A700080917B0290917C02019690937C0280938E
:107A80007B02FA94FF2009F70195B6D0801709F020
:107A9000A4C02091000127FD07C081E0E81609F08D
:107AA0003FC0222351F59EC0409101015091020137
:107AB00086E46BEE71E020E8EAD09091000120E8C6
:107AC00009C0E22FF0E0E551FE4F8081E058F04020
:107AD00080832F5F2917A9F72058209300018091F8
:107AE0007B0290917C02821B91099093020180930A
:107AF000010181E0E816A1F475C0409101015091A7
:107B0000020186E46BEE71E0C2D010920001809118
:107B10007B0290917C02909302018093010162C0EC
:107B20008091EA018E5F8093EA018091E401909157
:107B3000E50102969093E5018093E40145CF209101
:107B4000E4013091E50140E050E08091E601909140
:107B5000E701A091E801B091E901820F931FA41FF2
:107B6000B51F8093E6019093E701A093E801B093DD
:107B7000E901C090E601D090E701E090E801F090C3
:107B8000E901C814D904EA04FB0408F49CCE1FC020
:107B90002197CE016FEF1DD12097D1F781E004D15D
:107BA0008AE028E13EEF91E0309385002093840045
:107BB00096BBB09BFECF359AA8958150A9F7272C8C
:107BC000A895E0E0FF27099480E090E00895A8954B
:107BD00080E052D0CFEFD3E0DBCF8CE893E062E0DF
:107BE000F8D0F2CF8091E4019091E5010296909354
:107BF000E5018093E401A3CF8091E4019091E50138
:107C000002969093E5018093E4018091EA01E82FC8
:107C1000F0E0ED5FFE4FE081982F9F5FE13418F4B4
:107C20002E2F205302C02E2F2753E92FF0E0ED5FB7
:107C3000FE4F80819F5F9093EA01813410F480535E
:107C400001C087532295207F820F0895982F80913D
:107C5000C00085FFFCCF9093C6000895359A8091AF
:107C6000C00087FFFCCF8091C00084FD01C0A895B3
:107C70008091C600359A0895E0E6F0E098E190839F
:107C800080830895282EA895E0E0FF2709941F938C
:107C9000CF93DF93DA01122F853409F4FFCF83E00D
:107CA000FA0187BFE89507B600FCFDCFEB01AD01F7
:107CB00061E0288130E0898190E0982F8827822B2D
:107CC000932B2296FA010C0167BFE89511244E5FB1
:107CD0005F4F125071F785E0FD0187BFE89507B649
:107CE00000FCFDCF81E187BFE895DF91CF911F9127
:107CF00008958F929F92AF92BF92CF92DF92EF92B0
:107D0000FF920F93DF93CF9300D000D000D0CDB778
:107D1000DEB76B017C01611571058105910519F4D0
:107D200080E394DF2FC000E04E010894811C911C79
:107D30005401A00EB11CC701B6012AE030E040E0BA
:107D400050E065D0605DF50160830F5FC701B6014B
:107D50002AE030E040E050E05AD069017A01211574
:107D600031054105510521F707C00150F701E00F2A
:107D7000F11D80816BDF04C07E010894E11CF11CC1
:107D8000002399F726960FB6F894DEBF0FBECDBF3D
:107D9000CF91DF910F91FF90EF90DF90CF90BF9048
:107DA000AF909F908F900895682F8CE893E011D04A
:107DB00084E893E060E00DC0F999FECF92BD81BDEB
:107DC000F89A992780B50895A6E1B0E044E050E024
:107DD00010C0262FF999FECF1FBA92BD81BD20BDDC
:107DE0000FB6F894FA9AF99A0FBE01960895DC013D
:107DF000CB01FC01F999FECF06C0F2BDE1BDF89AB6
:107E0000319600B40D9241505040B8F70895A1E268
:107E10001A2EAA1BBB1BFD010DC0AA1FBB1FEE1F04
:107E2000FF1FA217B307E407F50720F0A21BB30B4F
:107E3000E40BF50B661F771F881F991F1A9469F7CB
:107E400060957095809590959B01AC01BD01CF0127
:027E5000089593
:027FFE00020679
:040000030000780081
:00000001FF
