:1078000012E0A0E0B1E001C01D92AD36B107E1F792
:1078100089E2EFD08DE0D7D08AE0D5D01124D4B65C
:1078200014BE84E893E026D3813029F02D2CA8954E
:10783000E0E0FF2709948DE0C6D08AE0C4D08DE057
:10784000C2D08AE0C0D085E08093810082E080933E
:10785000C00088E18093C10086E08093C20083E38A
:107860008093C40089E2C5D03D9A8DE0ACD08AE017
:10787000AAD088E893E006D37B018C0180E993E0ED
:10788000F9D28130C1F0C801B70140E020D188238E
:1078900069F086E598D084E496D08DE094D08AE0B3
:1078A00092D080E993E061E0F2D202C08AE007D191
:1078B0008CE09FD0FFCFC801B70141E008D18823F9
:1078C00009F1A89580E095D0CFEFD3E02197CE01C4
:1078D0006FEFDDD22097D1F781E0F1D08AE028E187
:1078E0003EEF91E0309385002093840096BBB09BDF
:1078F000FECF359AA8958150A9F72D2CA895E0E0E8
:10790000FF27099480E090E008958091E401909130
:10791000E50102969093E5018093E4018091EA01EC
:10792000E82FF0E0ED5FFE4FE081982F9F5FE1349C
:1079300018F42E2F205302C02E2F2753E92FF0E0EA
:10794000ED5FFE4F80819F5F9093EA01813410F4D8
:10795000805301C087532295207F820F0895CF93D3
:10796000DF936091010170910201A091000183E019
:10797000FB0187BFE89507B600FCFDCFAB01CBEE5E
:10798000D1E0B1E0288130E0898190E0982F88270C
:10799000822B932B2296FA010C01B7BFE895112494
:1079A0004E5F5F4FA25071F785E0FB0187BFE895FE
:1079B00007B600FCFDCF81E187BFE895109200017A
:1079C000DF91CF910895982F8091C00085FFFCCF63
:1079D0009093C6000895359A8091C00087FFFCCF30
:1079E0008091C00084FD01C0A8958091C600359AA1
:1079F0000895E0E6F0E098E1908380830895282ED2
:107A0000A895E0E0FF2709948F929F92AF92BF92D2
:107A1000CF92DF92EF92FF920F93DF93CF9300D03C
:107A200000D000D0CDB7DEB76B017C0161157105C8
:107A30008105910519F480E3C6DF2FC000E04E01F7
:107A40000894811C911C5401A00EB11CC701B60101
:107A50002AE030E040E050E038D2605DF50160831C
:107A60000F5FC701B6012AE030E040E050E02DD2C0
:107A700069017A01211531054105510521F707C03A
:107A80000150F701E00FF11D80819DDF04C07E01F0
:107A90000894E11CF11C002399F726960FB6F89480
:107AA000DEBF0FBECDBFCF91DF910F91FF90EF9062
:107AB000DF90CF90BF90AF909F908F900895682FE8
:107AC0008CE893E0E4D184E893E060E0E0C14F9279
:107AD0005F926F927F928F929F92AF92BF92CF925E
:107AE000DF92EF92FF920F931F93CF93DF934B019F
:107AF0005C01542E86E028E13EEF91E03093850052
:107B00002093840096BBB09BFECF359AA8958150F8
:107B1000A9F710926C0210926B021092020110925F
:107B200001011092E6011092E7011092E801109213
:107B3000E901B1EE6B2E712C44244A9465C1A895DD
:107B4000D501C4018C199D09AE09BF09823E91057A
:107B5000A105B10520F081EE90E0A0E0B0E0182F83
:107B600081E431DF84E52FDF8BE22DDF86E42BDF3C
:107B700083E529DF82E527DF85E425DF81E423DF54
:107B800084E421DF8DE31FDF83E41DDF8AE31BDF55
:107B90008CE519DF85E517DF83E715DF85E613DF61
:107BA00082E711DF8CE50FDF86E40DDF84E50BDF74
:107BB00080E509DF8CE507DF8DE605DF8EE203DF78
:107BC00082E601DF89E6FFDE8EE6FDDE8CE2FBDE8B
:107BD00081E3F9DE8CE2F7DE612F70E080E090E077
:107BE00013DF8CE2F0DEC701B6010EDF8DE0EBDEC5
:107BF0008AE0E9DEF0DEEFDE1092E5011092E401AA
:107C0000E12EFF240AC0E7DEFE01ED5FFE4F808318
:107C10002196D093E501C093E401C091E401D09195
:107C2000E501CE15DF0578F3D6DED5DED4DED3DE72
:107C3000D2DED1DE1092EA011092E5011092E40149
:107C40006091E4017091E5014091EA014F5FE42FFA
:107C5000F0E0ED5FFE4FE081E13418F49E2F905389
:107C600002C09E2F97534F5FE42FF0E04150ED5F2D
:107C7000FE4F8081813410F4805301C087539301FB
:107C8000261B370B9295907F890F90E0880F991FE4
:107C90000B962817390708F49DC04093EA016F5FDF
:107CA0007F4F7093E5016093E4012FDEF82E2DDE07
:107CB000182F2BDEE82E812F90E0D82FCC27CE0D69
:107CC000D11D23DE082F40916B0250916C024C179E
:107CD0005D0791F1882381F5809101019091020166
:107CE0009E01281B390B609100012038310518F4E2
:107CF000862F9A010CC0662309F031DED0936C0206
:107D0000C0936B02D0930201C093010115C0E82F0C
:107D1000F0E0E551FE4F40828F5F2F5F3F4F2C1701
:107D20003D07A9F7C901841B950B680F60930001FB
:107D300030936C0220936B021F0D1E0D100F1DC09F
:107D400080910001C82FD0E0E0DDC551DE4F88836F
:107D500090910001E92FF0E0E551FE4F8081180F6E
:107D60009F5F9093000180916B0290916C0201964D
:107D700090936C0280936B02FA94FF2009F711959F
:107D8000C4DD811709F060C0552091F08091000199
:107D9000803829F0013079F4882309F461C0DFDDEF
:107DA00080916B0290916C0290930201809301018B
:107DB000013009F455C08091EA018E5F8093EA0199
:107DC0008091E4019091E50102969093E501809302
:107DD000E40136CF2091E4013091E50140E050E02C
:107DE0008091E6019091E701A091E801B091E9014D
:107DF000820F931FA41FB51F8093E6019093E701A4
:107E0000A093E801B093E901C090E601D090E701AA
:107E1000E090E801F090E901C814D904EA04FB04F9
:107E200008F48DCE81E0DF91CF911F910F91FF90EB
:107E3000EF90DF90CF90BF90AF909F908F907F900A
:107E40006F905F904F9008958CE893E062E01FD0B0
:107E500083E4B9DD8BE4B7DD85E4B5DD80E0E3CF15
:107E60008091E4019091E50102969093E501809361
:107E7000E401B0CFF999FECF92BD81BDF89A992760
:107E800080B50895A6E1B0E044E050E010C0262F90
:107E9000F999FECF1FBA92BD81BD20BD0FB6F894EF
:107EA000FA9AF99A0FBE01960895DC01CB01FC0104
:107EB000F999FECF06C0F2BDE1BDF89A319600B443
:107EC0000D9241505040B8F70895A1E21A2EAA1B16
:107ED000BB1BFD010DC0AA1FBB1FEE1FFF1FA2177A
:107EE000B307E407F50720F0A21BB30BE40BF50B77
:107EF000661F771F881F991F1A9469F76095709500
:0E7F0000809590959B01AC01BD01CF010895C5
:027FFE00020679
:040000030000780081
:00000001FF
