:10780000CDB7DEB72D97DEBFCDBF89E2F8D18DE0D1
:10781000E0D18AE0DED1F894112414B714BE84E8D4
:1078200093E0BDD2813041F0A89580E0E8D1212ECF
:10783000A895E0E0FF27099484E993E0B0D2682F8F
:10784000863028F083E096D28CE0D9D1FFCF6F5FED
:1078500084E993E0B1D285E08093810082E0809357
:10786000C00088E18093C10086E08093C20083E37A
:107870008093C40089E2C3D13D9A8DE0AAD18AE009
:10788000A8D18DE0A6D18AE0A4D18DE0A2D18AE072
:10789000A0D184E028E13EEF91E030938500209371
:1078A000840096BBB09BFECF359AA8958150A9F76E
:1078B00088E893E07CD2688779878A879B878DE008
:1078C00088D18AE086D188EE93E09A83898380E923
:1078D00093E065D21D82813011F421E02D831F8257
:1078E0001E8244245524320145C1A895E884F984B8
:1078F0000A851B85E418F5080609170931EDE3161A
:1079000032E0F30630E0030730E0130730F040EDDB
:10791000E42E42E0F42E012D112DFC82EB8281E455
:1079200058D184E556D18BE254D186E452D183E517
:1079300050D182E54ED185E44CD181E44AD184E432
:1079400048D18DE346D183E444D18AE342D18CE52A
:1079500040D185E53ED183E73CD185E63AD182E747
:1079600038D18CE536D186E434D184E532D180E556
:1079700030D18CE52ED18DE62CD18EE22AD188E64D
:1079800028D185E626D188E724D18CE222D181E373
:1079900020D18CE21ED1AB81BC81BD0180E090E0A2
:1079A000B2D18CE216D1C301B201ADD18DE011D1BB
:1079B0008AE00FD116D115D18701E12C31E0F32EE9
:1079C00010D1F70181937F0101501040C9F709D10F
:1079D00008D107D106D105D104D1C12C21E0D22E86
:1079E000A3C0C401AA2797FDA095BA2F480E591E1F
:1079F0006A1E7B1EBFC0F7013196D7011196BC915C
:107A0000BD87DF011196A180FD01319611962C9161
:107A10002C87DF01119681808D010F5F1F4F780148
:107A20000894E11CF11C11968C91CDD0982ED801B0
:107A300011968C91C8D0929490EF9922980EBD81A6
:107A4000BB2321F4E8EEF3E0FA83E98317010894FD
:107A5000211C311C882DB7D0E82E8A2DB4D0082FD8
:107A60008D85B1D0182F8C85AED0E00E1295107F89
:107A7000E10E8295807FE80EE90CEB0C0B2D15C012
:107A8000D60117968C919FD0182FF60180859BD038
:107A9000E981FA811295107F180F1083E981FA812C
:107AA0008191E80EFA83E983015022E030E0C20EB2
:107AB000D31E002329F70B2D10E0000F111F020D1C
:107AC000131DE19468010894C11CD11CD8018C914C
:107AD0007AD0F82EF801818176D0F29410EFF1225D
:107AE000F80EFE1429F082E045D18CE088D0FFCF5B
:107AF000FD81FF23A9F089819A81885E93408038B7
:107B0000910534F421E0921659F41816190644F43C
:107B10008E819F81BE016F5F7F4FB4D09F838E8324
:107B200083E090E0C80ED91E812CBFEF9B2E8C0CF9
:107B30009D1C86010F5F1F4F78010894E11CF11C0A
:107B4000D60111968C913FD0B82EF80181813BD09F
:107B5000B294A0EFBA22B80E2B813C8128193909C2
:107B60008B2D90E0880F991F0B962817390708F086
:107B700042CF37CF88859985AA85BB854816590697
:107B80006A067B0608F4B1CE9D819130A1F48AE0AB
:107B900028E13EEF309385002093840096BBB09B94
:107BA000FECF359AA8958150A9F78FEF93E0EAD0E0
:107BB00081E0E0D004C080E993E061E0FDD0A895C9
:107BC00088E01DD0FFCF813410F48053089587538F
:107BD0000895982F8091C00085FFFCCF9093C60038
:107BE0000895359A8091C00087FFFCCF8091C00036
:107BF00084FD01C0A8958091C600359A0895E0E6FD
:107C0000F0E098E1908380830895282EA895E0E025
:107C1000FF2709941F93CF93DF93DB01BA01E9019A
:107C2000853409F4FFCF83E0FA0187BFE89507B6F2
:107C300000FCFDCF40E050E011E08C9190E0119607
:107C40002C91119730E0322F2227282B392B1296B6
:107C5000FA01E60FF71F090117BFE89511244E5FDF
:107C60005F4FC417D50749F785E0FB0187BFE8954B
:107C700007B600FCFDCF81E187BFE895DF91CF918A
:107C80001F9108950F931F93CF93DF93EC018B0106
:107C9000DB012D913C91285E334020383105E4F022
:107CA00086E468EE73E0AE0120E830E0B3DFE8E69A
:107CB000F4E002C081918C93D8018D919C91DF01F9
:107CC000A058B040E817F907A8F3F801B183A083E2
:107CD0009E0120583F4F11C086E468EE73E0AE016C
:107CE00099DFC85ED340D8012D913C9111972C0F9C
:107CF0003D1F88EE93E08D939C93C901DF91CF9156
:107D00001F910F910895EF92FF920F931F93CF93BE
:107D1000DF937B018C01611571058105910519F4D3
:107D200080E357DF20C0C0E0D1E0C801B7012AE0FE
:107D300030E040E050E05ED0605D6993C801B7017B
:107D40002AE030E040E050E055D079018A01211569
:107D500031054105510549F702C08A913ADF81E0BA
:107D6000C130D807D0F7DF91CF911F910F91FF90CD
:107D7000EF900895682F8CE893E01ED084E893E09C
:107D800060E01AC0CF93DF93CFEFD3E02197CE010D
:107D90006FEF12D02097D1F7DF91CF910895F99925
:107DA000FECF92BD81BDF89A992780B50895A6E1CE
:107DB000B0E044E050E010C0262FF999FECF1FBA82
:107DC00092BD81BD20BD0FB6F894FA9AF99A0FBE04
:107DD00001960895DC01CB01FC01F999FECF06C0A4
:107DE000F2BDE1BDF89A319600B40D924150504079
:107DF000B8F70895A1E21A2EAA1BBB1BFD010DC006
:107E0000AA1FBB1FEE1FFF1FA217B307E407F5074A
:107E100020F0A21BB30BE40BF50B661F771F881F26
:107E2000991F1A9469F760957095809590959B01BC
:087E3000AC01BD01CF01089572
:027FFE00020679
:040000030000780081
:00000001FF
